{
  "contractName": "Registration",
  "abi": [
    {
      "inputs": [],
      "stateMutability": "nonpayable",
      "type": "constructor"
    },
    {
      "inputs": [],
      "name": "amount",
      "outputs": [
        {
          "internalType": "uint256",
          "name": "",
          "type": "uint256"
        }
      ],
      "stateMutability": "view",
      "type": "function",
      "constant": true
    },
    {
      "inputs": [],
      "name": "chng_amount",
      "outputs": [
        {
          "internalType": "uint256",
          "name": "",
          "type": "uint256"
        }
      ],
      "stateMutability": "view",
      "type": "function",
      "constant": true
    },
    {
      "inputs": [],
      "name": "index",
      "outputs": [
        {
          "internalType": "uint256",
          "name": "",
          "type": "uint256"
        }
      ],
      "stateMutability": "view",
      "type": "function",
      "constant": true
    },
    {
      "inputs": [],
      "name": "owner",
      "outputs": [
        {
          "internalType": "address",
          "name": "",
          "type": "address"
        }
      ],
      "stateMutability": "view",
      "type": "function",
      "constant": true
    },
    {
      "inputs": [
        {
          "internalType": "uint256",
          "name": "",
          "type": "uint256"
        }
      ],
      "name": "registration",
      "outputs": [
        {
          "internalType": "address",
          "name": "owner",
          "type": "address"
        },
        {
          "internalType": "uint256",
          "name": "hand",
          "type": "uint256"
        },
        {
          "internalType": "string",
          "name": "vehicleno",
          "type": "string"
        },
        {
          "internalType": "string",
          "name": "owner_name",
          "type": "string"
        },
        {
          "internalType": "string",
          "name": "vehicle_type",
          "type": "string"
        },
        {
          "internalType": "uint256",
          "name": "chassis",
          "type": "uint256"
        },
        {
          "internalType": "bool",
          "name": "pending",
          "type": "bool"
        },
        {
          "internalType": "uint256",
          "name": "Index",
          "type": "uint256"
        },
        {
          "internalType": "uint256",
          "name": "amount",
          "type": "uint256"
        },
        {
          "internalType": "bool",
          "name": "reject",
          "type": "bool"
        }
      ],
      "stateMutability": "view",
      "type": "function",
      "constant": true
    },
    {
      "inputs": [
        {
          "internalType": "string",
          "name": "_ownername",
          "type": "string"
        },
        {
          "internalType": "string",
          "name": "_vehicletype",
          "type": "string"
        },
        {
          "internalType": "uint256",
          "name": "_chassis",
          "type": "uint256"
        }
      ],
      "name": "propose_newRegistration",
      "outputs": [],
      "stateMutability": "payable",
      "type": "function",
      "payable": true
    },
    {
      "inputs": [
        {
          "internalType": "uint256",
          "name": "_index",
          "type": "uint256"
        },
        {
          "internalType": "string",
          "name": "_vehicleno",
          "type": "string"
        }
      ],
      "name": "confirm_newRegistration",
      "outputs": [],
      "stateMutability": "nonpayable",
      "type": "function"
    },
    {
      "inputs": [
        {
          "internalType": "uint256",
          "name": "_index",
          "type": "uint256"
        }
      ],
      "name": "reject_Registration",
      "outputs": [],
      "stateMutability": "nonpayable",
      "type": "function"
    },
    {
      "inputs": [
        {
          "internalType": "uint256",
          "name": "_index",
          "type": "uint256"
        },
        {
          "internalType": "string",
          "name": "_ownername",
          "type": "string"
        },
        {
          "internalType": "address",
          "name": "_owner",
          "type": "address"
        }
      ],
      "name": "change_registrationproposal",
      "outputs": [],
      "stateMutability": "payable",
      "type": "function",
      "payable": true
    }
  ],
  "bytecode": "0x608060405234801561001057600080fd5b50336000806101000a81548173ffffffffffffffffffffffffffffffffffffffff021916908373ffffffffffffffffffffffffffffffffffffffff1602179055506000600181905550600360028190555060016003819055506111bd806100786000396000f3fe6080604052600436106100865760003560e01c80638da5cb5b116100595780638da5cb5b146103c7578063aa8c217c1461041e578063b1a1622114610449578063c0396f8b1461051b578063d509a5ca1461054657610086565b80632986c0e51461008b5780633516dcd1146100b65780636832111d146102a75780637f69d6931461038c575b600080fd5b34801561009757600080fd5b506100a06106a2565b6040518082815260200191505060405180910390f35b3480156100c257600080fd5b506100ef600480360360208110156100d957600080fd5b81019080803590602001909291905050506106a8565b604051808b73ffffffffffffffffffffffffffffffffffffffff1673ffffffffffffffffffffffffffffffffffffffff1681526020018a8152602001806020018060200180602001898152602001881515151581526020018781526020018681526020018515151515815260200184810384528c818151815260200191508051906020019080838360005b8381101561019557808201518184015260208101905061017a565b50505050905090810190601f1680156101c25780820380516001836020036101000a031916815260200191505b5084810383528b818151815260200191508051906020019080838360005b838110156101fb5780820151818401526020810190506101e0565b50505050905090810190601f1680156102285780820380516001836020036101000a031916815260200191505b5084810382528a818151815260200191508051906020019080838360005b83811015610261578082015181840152602081019050610246565b50505050905090810190601f16801561028e5780820380516001836020036101000a031916815260200191505b509d505050505050505050505050505060405180910390f35b61038a600480360360608110156102bd57600080fd5b8101908080359060200190929190803590602001906401000000008111156102e457600080fd5b8201836020820111156102f657600080fd5b8035906020019184600183028401116401000000008311171561031857600080fd5b91908080601f016020809104026020016040519081016040528093929190818152602001838380828437600081840152601f19601f820116905080830192505050505050509192919290803573ffffffffffffffffffffffffffffffffffffffff1690602001909291905050506108fe565b005b34801561039857600080fd5b506103c5600480360360208110156103af57600080fd5b8101908080359060200190929190505050610ab1565b005b3480156103d357600080fd5b506103dc610c26565b604051808273ffffffffffffffffffffffffffffffffffffffff1673ffffffffffffffffffffffffffffffffffffffff16815260200191505060405180910390f35b34801561042a57600080fd5b50610433610c4b565b6040518082815260200191505060405180910390f35b34801561045557600080fd5b506105196004803603604081101561046c57600080fd5b81019080803590602001909291908035906020019064010000000081111561049357600080fd5b8201836020820111156104a557600080fd5b803590602001918460018302840111640100000000831117156104c757600080fd5b91908080601f016020809104026020016040519081016040528093929190818152602001838380828437600081840152601f19601f820116905080830192505050505050509192919290505050610c51565b005b34801561052757600080fd5b50610530610da9565b6040518082815260200191505060405180910390f35b6106a06004803603606081101561055c57600080fd5b810190808035906020019064010000000081111561057957600080fd5b82018360208201111561058b57600080fd5b803590602001918460018302840111640100000000831117156105ad57600080fd5b91908080601f016020809104026020016040519081016040528093929190818152602001838380828437600081840152601f19601f8201169050808301925050505050505091929192908035906020019064010000000081111561061057600080fd5b82018360208201111561062257600080fd5b8035906020019184600183028401116401000000008311171561064457600080fd5b91908080601f016020809104026020016040519081016040528093929190818152602001838380828437600081840152601f19601f82011690508083019250505050505050919291929080359060200190929190505050610daf565b005b60015481565b60046020528060005260406000206000915090508060000160009054906101000a900473ffffffffffffffffffffffffffffffffffffffff1690806001015490806002018054600181600116156101000203166002900480601f0160208091040260200160405190810160405280929190818152602001828054600181600116156101000203166002900480156107805780601f1061075557610100808354040283529160200191610780565b820191906000526020600020905b81548152906001019060200180831161076357829003601f168201915b505050505090806003018054600181600116156101000203166002900480601f01602080910402602001604051908101604052809291908181526020018280546001816001161561010002031660029004801561081e5780601f106107f35761010080835404028352916020019161081e565b820191906000526020600020905b81548152906001019060200180831161080157829003601f168201915b505050505090806004018054600181600116156101000203166002900480601f0160208091040260200160405190810160405280929190818152602001828054600181600116156101000203166002900480156108bc5780601f10610891576101008083540402835291602001916108bc565b820191906000526020600020905b81548152906001019060200180831161089f57829003601f168201915b5050505050908060050154908060060160009054906101000a900460ff16908060070154908060080154908060090160009054906101000a900460ff1690508a565b6004600084815260200190815260200160002060000160009054906101000a900473ffffffffffffffffffffffffffffffffffffffff1673ffffffffffffffffffffffffffffffffffffffff163373ffffffffffffffffffffffffffffffffffffffff161461096c57600080fd5b60035434101561097b57600080fd5b60008060009054906101000a900473ffffffffffffffffffffffffffffffffffffffff1673ffffffffffffffffffffffffffffffffffffffff163460405180600001905060006040518083038185875af1925050503d80600081146109fc576040519150601f19603f3d011682016040523d82523d6000602084013e610a01565b606091505b50509050816004600086815260200190815260200160002060000160006101000a81548173ffffffffffffffffffffffffffffffffffffffff021916908373ffffffffffffffffffffffffffffffffffffffff16021790555082600460008681526020019081526020016000206003019080519060200190610a84929190610ff5565b50600460008581526020019081526020016000206001016000815480929190600101919050555050505050565b6000809054906101000a900473ffffffffffffffffffffffffffffffffffffffff1673ffffffffffffffffffffffffffffffffffffffff163373ffffffffffffffffffffffffffffffffffffffff1614610b0a57600080fd5b600015156004600083815260200190815260200160002060090160009054906101000a900460ff16151514610b3e57600080fd5b60016004600083815260200190815260200160002060090160006101000a81548160ff02191690831515021790555060006004600083815260200190815260200160002060000160009054906101000a900473ffffffffffffffffffffffffffffffffffffffff1673ffffffffffffffffffffffffffffffffffffffff16600460008481526020019081526020016000206008015460405180600001905060006040518083038185875af1925050503d8060008114610c19576040519150601f19603f3d011682016040523d82523d6000602084013e610c1e565b606091505b505090505050565b6000809054906101000a900473ffffffffffffffffffffffffffffffffffffffff1681565b60025481565b6000809054906101000a900473ffffffffffffffffffffffffffffffffffffffff1673ffffffffffffffffffffffffffffffffffffffff163373ffffffffffffffffffffffffffffffffffffffff1614610caa57600080fd5b80600460008481526020019081526020016000206002019080519060200190610cd4929190610ff5565b5060006004600084815260200190815260200160002060060160006101000a81548160ff02191690831515021790555060008060009054906101000a900473ffffffffffffffffffffffffffffffffffffffff1673ffffffffffffffffffffffffffffffffffffffff16600460008581526020019081526020016000206008015460405180600001905060006040518083038185875af1925050503d8060008114610d9b576040519150601f19603f3d011682016040523d82523d6000602084013e610da0565b606091505b50509050505050565b60035481565b6000809054906101000a900473ffffffffffffffffffffffffffffffffffffffff1673ffffffffffffffffffffffffffffffffffffffff163373ffffffffffffffffffffffffffffffffffffffff161415610e0957600080fd5b600254341015610e1857600080fd5b600160008154809291906001019190505550610e32611075565b6040518061014001604052803373ffffffffffffffffffffffffffffffffffffffff168152602001600181526020016040518060400160405280600481526020017f6e756c6c00000000000000000000000000000000000000000000000000000000815250815260200185815260200184815260200183815260200160011515815260200160015481526020013481526020016000151581525090508060046000600154815260200190815260200160002060008201518160000160006101000a81548173ffffffffffffffffffffffffffffffffffffffff021916908373ffffffffffffffffffffffffffffffffffffffff160217905550602082015181600101556040820151816002019080519060200190610f519291906110e2565b506060820151816003019080519060200190610f6e9291906110e2565b506080820151816004019080519060200190610f8b9291906110e2565b5060a0820151816005015560c08201518160060160006101000a81548160ff02191690831515021790555060e0820151816007015561010082015181600801556101208201518160090160006101000a81548160ff02191690831515021790555090505050505050565b828054600181600116156101000203166002900490600052602060002090601f016020900481019282601f1061103657805160ff1916838001178555611064565b82800160010185558215611064579182015b82811115611063578251825591602001919060010190611048565b5b5090506110719190611162565b5090565b604051806101400160405280600073ffffffffffffffffffffffffffffffffffffffff168152602001600081526020016060815260200160608152602001606081526020016000815260200160001515815260200160008152602001600081526020016000151581525090565b828054600181600116156101000203166002900490600052602060002090601f016020900481019282601f1061112357805160ff1916838001178555611151565b82800160010185558215611151579182015b82811115611150578251825591602001919060010190611135565b5b50905061115e9190611162565b5090565b61118491905b80821115611180576000816000905550600101611168565b5090565b9056fea2646970667358221220967cf9b67884a37c151c02ded6bdba188f545fadf8542da80bfadc32a1d9316964736f6c63430006000033",
  "source": "pragma solidity ^0.6.0;\r\n\r\ncontract Registration{\r\n\r\n    address public owner;\r\n    uint256 public index;\r\n    uint256 public amount; // new Registration amount\r\n    uint256 public chng_amount; // change registration amount\r\n\r\n    constructor() public{\r\n        owner = msg.sender;\r\n        index = 0;\r\n        amount = 3;\r\n        chng_amount = 1;\r\n    }\r\n    struct newRegistration{\r\n        address owner;\r\n        uint256 hand;\r\n        string vehicleno;\r\n        string owner_name;\r\n        string vehicle_type;\r\n        uint256 chassis;\r\n        bool pending;\r\n        uint256 Index;\r\n        uint256 amount;\r\n        bool reject;\r\n  }\r\n    mapping(uint256 => newRegistration) public registration;\r\n        modifier onlyOwner(){\r\n        require(msg.sender == owner);\r\n        _;\r\n    }\r\n\r\n    function propose_newRegistration(string memory _ownername,string memory _vehicletype,uint256 _chassis)public payable{\r\n        require(msg.sender != owner);\r\n        require(msg.value >= amount);\r\n        index++;\r\n        newRegistration memory regi = newRegistration({\r\n\r\n            owner : msg.sender,\r\n            hand : 1,\r\n            vehicleno : \"null\",\r\n            owner_name : _ownername,\r\n            vehicle_type : _vehicletype,\r\n            chassis : _chassis,\r\n            pending : true,\r\n            Index : index,\r\n            amount : msg.value,\r\n            reject :false\r\n          });\r\n\r\n        registration[index] = regi;\r\n      }\r\n    function confirm_newRegistration(uint _index,string memory _vehicleno)public onlyOwner{\r\n\r\n        registration[_index].vehicleno = _vehicleno;\r\n        registration[_index].pending = false;\r\n        (bool success, ) = owner.call.value(\r\n                        registration[_index].amount\r\n                    )(\"\");\r\n}\r\n\r\n    function reject_Registration(uint _index)public onlyOwner{\r\n        require(registration[_index].reject == false);\r\n        registration[_index].reject = true;\r\n        (bool success,) = registration[_index].owner.call.value(\r\n            registration[_index].amount\r\n            )(\"\");\r\n    }\r\n\r\n    function change_registrationproposal(uint _index,string memory _ownername,address _owner)public payable{\r\n        require(msg.sender == registration[_index].owner);\r\n        require(msg.value >= chng_amount);\r\n        (bool success,) = owner.call.value(\r\n             msg.value\r\n        )(\"\");\r\n        registration[_index].owner = _owner;\r\n        registration[_index].owner_name = _ownername;\r\n        registration[_index].hand++;\r\n\r\n    }\r\n}\r\n",
  "sourcePath": "C:\\Users\\HP\\Desktop\\registration\\contracts\\Registration.sol",
  "compiler": {
    "name": "solc",
    "version": "0.6.0+commit.26b70077.Emscripten.clang"
  },
  "schemaVersion": "3.2.0",
  "updatedAt": "2020-08-06T16:44:41.510Z",
  "networkType": "ethereum",
  "devdoc": {
    "methods": {}
  },
  "userdoc": {
    "methods": {}
  }
}