{
  "contractName": "Registration",
  "abi": [
    {
      "inputs": [],
      "stateMutability": "nonpayable",
      "type": "constructor"
    },
    {
      "inputs": [],
      "name": "owner",
      "outputs": [
        {
          "internalType": "address",
          "name": "",
          "type": "address"
        }
      ],
      "stateMutability": "view",
      "type": "function",
      "constant": true
    },
    {
      "inputs": [
        {
          "internalType": "uint256",
          "name": "",
          "type": "uint256"
        }
      ],
      "name": "registration",
      "outputs": [
        {
          "internalType": "address",
          "name": "owner",
          "type": "address"
        },
        {
          "internalType": "uint256",
          "name": "hand",
          "type": "uint256"
        },
        {
          "internalType": "string",
          "name": "vehicleno",
          "type": "string"
        },
        {
          "internalType": "string",
          "name": "owner_name",
          "type": "string"
        },
        {
          "internalType": "string",
          "name": "vehicle_type",
          "type": "string"
        },
        {
          "internalType": "uint256",
          "name": "chassis",
          "type": "uint256"
        },
        {
          "internalType": "bool",
          "name": "pending",
          "type": "bool"
        },
        {
          "internalType": "uint256",
          "name": "Index",
          "type": "uint256"
        },
        {
          "internalType": "uint256",
          "name": "amount",
          "type": "uint256"
        }
      ],
      "stateMutability": "view",
      "type": "function",
      "constant": true
    },
    {
      "inputs": [
        {
          "internalType": "string",
          "name": "_ownername",
          "type": "string"
        },
        {
          "internalType": "string",
          "name": "_vehicletype",
          "type": "string"
        },
        {
          "internalType": "uint256",
          "name": "_chassis",
          "type": "uint256"
        }
      ],
      "name": "propose_newRegistration",
      "outputs": [],
      "stateMutability": "payable",
      "type": "function",
      "payable": true
    },
    {
      "inputs": [
        {
          "internalType": "uint256",
          "name": "_index",
          "type": "uint256"
        },
        {
          "internalType": "string",
          "name": "_vehicleno",
          "type": "string"
        }
      ],
      "name": "confirm_newRegistration",
      "outputs": [],
      "stateMutability": "nonpayable",
      "type": "function"
    },
    {
      "inputs": [
        {
          "internalType": "uint256",
          "name": "_index",
          "type": "uint256"
        }
      ],
      "name": "reject_Registration",
      "outputs": [],
      "stateMutability": "nonpayable",
      "type": "function"
    },
    {
      "inputs": [
        {
          "internalType": "uint256",
          "name": "_index",
          "type": "uint256"
        },
        {
          "internalType": "string",
          "name": "_ownername",
          "type": "string"
        },
        {
          "internalType": "address",
          "name": "_owner",
          "type": "address"
        }
      ],
      "name": "change_registrationproposal",
      "outputs": [],
      "stateMutability": "payable",
      "type": "function",
      "payable": true
    }
  ],
  "bytecode": "0x608060405234801561001057600080fd5b50336000806101000a81548173ffffffffffffffffffffffffffffffffffffffff021916908373ffffffffffffffffffffffffffffffffffffffff160217905550600060018190555060036002819055506001600381905550611045806100786000396000f3fe6080604052600436106100555760003560e01c80633516dcd11461005a5780636832111d146102405780637f69d693146103255780638da5cb5b14610360578063b1a16221146103b7578063d509a5ca14610489575b600080fd5b34801561006657600080fd5b506100936004803603602081101561007d57600080fd5b81019080803590602001909291905050506105e5565b604051808a73ffffffffffffffffffffffffffffffffffffffff1673ffffffffffffffffffffffffffffffffffffffff1681526020018981526020018060200180602001806020018881526020018715151515815260200186815260200185815260200184810384528b818151815260200191508051906020019080838360005b8381101561012f578082015181840152602081019050610114565b50505050905090810190601f16801561015c5780820380516001836020036101000a031916815260200191505b5084810383528a818151815260200191508051906020019080838360005b8381101561019557808201518184015260208101905061017a565b50505050905090810190601f1680156101c25780820380516001836020036101000a031916815260200191505b50848103825289818151815260200191508051906020019080838360005b838110156101fb5780820151818401526020810190506101e0565b50505050905090810190601f1680156102285780820380516001836020036101000a031916815260200191505b509c5050505050505050505050505060405180910390f35b6103236004803603606081101561025657600080fd5b81019080803590602001909291908035906020019064010000000081111561027d57600080fd5b82018360208201111561028f57600080fd5b803590602001918460018302840111640100000000831117156102b157600080fd5b91908080601f016020809104026020016040519081016040528093929190818152602001838380828437600081840152601f19601f820116905080830192505050505050509192919290803573ffffffffffffffffffffffffffffffffffffffff169060200190929190505050610828565b005b34801561033157600080fd5b5061035e6004803603602081101561034857600080fd5b81019080803590602001909291905050506109db565b005b34801561036c57600080fd5b50610375610aed565b604051808273ffffffffffffffffffffffffffffffffffffffff1673ffffffffffffffffffffffffffffffffffffffff16815260200191505060405180910390f35b3480156103c357600080fd5b50610487600480360360408110156103da57600080fd5b81019080803590602001909291908035906020019064010000000081111561040157600080fd5b82018360208201111561041357600080fd5b8035906020019184600183028401116401000000008311171561043557600080fd5b91908080601f016020809104026020016040519081016040528093929190818152602001838380828437600081840152601f19601f820116905080830192505050505050509192919290505050610b12565b005b6105e36004803603606081101561049f57600080fd5b81019080803590602001906401000000008111156104bc57600080fd5b8201836020820111156104ce57600080fd5b803590602001918460018302840111640100000000831117156104f057600080fd5b91908080601f016020809104026020016040519081016040528093929190818152602001838380828437600081840152601f19601f8201169050808301925050505050505091929192908035906020019064010000000081111561055357600080fd5b82018360208201111561056557600080fd5b8035906020019184600183028401116401000000008311171561058757600080fd5b91908080601f016020809104026020016040519081016040528093929190818152602001838380828437600081840152601f19601f82011690508083019250505050505050919291929080359060200190929190505050610c6a565b005b60046020528060005260406000206000915090508060000160009054906101000a900473ffffffffffffffffffffffffffffffffffffffff1690806001015490806002018054600181600116156101000203166002900480601f0160208091040260200160405190810160405280929190818152602001828054600181600116156101000203166002900480156106bd5780601f10610692576101008083540402835291602001916106bd565b820191906000526020600020905b8154815290600101906020018083116106a057829003601f168201915b505050505090806003018054600181600116156101000203166002900480601f01602080910402602001604051908101604052809291908181526020018280546001816001161561010002031660029004801561075b5780601f106107305761010080835404028352916020019161075b565b820191906000526020600020905b81548152906001019060200180831161073e57829003601f168201915b505050505090806004018054600181600116156101000203166002900480601f0160208091040260200160405190810160405280929190818152602001828054600181600116156101000203166002900480156107f95780601f106107ce576101008083540402835291602001916107f9565b820191906000526020600020905b8154815290600101906020018083116107dc57829003601f168201915b5050505050908060050154908060060160009054906101000a900460ff16908060070154908060080154905089565b6004600084815260200190815260200160002060000160009054906101000a900473ffffffffffffffffffffffffffffffffffffffff1673ffffffffffffffffffffffffffffffffffffffff163373ffffffffffffffffffffffffffffffffffffffff161461089657600080fd5b6003543410156108a557600080fd5b60008060009054906101000a900473ffffffffffffffffffffffffffffffffffffffff1673ffffffffffffffffffffffffffffffffffffffff163460405180600001905060006040518083038185875af1925050503d8060008114610926576040519150601f19603f3d011682016040523d82523d6000602084013e61092b565b606091505b50509050816004600086815260200190815260200160002060000160006101000a81548173ffffffffffffffffffffffffffffffffffffffff021916908373ffffffffffffffffffffffffffffffffffffffff160217905550826004600086815260200190815260200160002060030190805190602001906109ae929190610e86565b50600460008581526020019081526020016000206001016000815480929190600101919050555050505050565b6000809054906101000a900473ffffffffffffffffffffffffffffffffffffffff1673ffffffffffffffffffffffffffffffffffffffff163373ffffffffffffffffffffffffffffffffffffffff1614610a3457600080fd5b60006004600083815260200190815260200160002060000160009054906101000a900473ffffffffffffffffffffffffffffffffffffffff1673ffffffffffffffffffffffffffffffffffffffff16600460008481526020019081526020016000206008015460405180600001905060006040518083038185875af1925050503d8060008114610ae0576040519150601f19603f3d011682016040523d82523d6000602084013e610ae5565b606091505b505090505050565b6000809054906101000a900473ffffffffffffffffffffffffffffffffffffffff1681565b6000809054906101000a900473ffffffffffffffffffffffffffffffffffffffff1673ffffffffffffffffffffffffffffffffffffffff163373ffffffffffffffffffffffffffffffffffffffff1614610b6b57600080fd5b80600460008481526020019081526020016000206002019080519060200190610b95929190610e86565b5060006004600084815260200190815260200160002060060160006101000a81548160ff02191690831515021790555060008060009054906101000a900473ffffffffffffffffffffffffffffffffffffffff1673ffffffffffffffffffffffffffffffffffffffff16600460008581526020019081526020016000206008015460405180600001905060006040518083038185875af1925050503d8060008114610c5c576040519150601f19603f3d011682016040523d82523d6000602084013e610c61565b606091505b50509050505050565b6000809054906101000a900473ffffffffffffffffffffffffffffffffffffffff1673ffffffffffffffffffffffffffffffffffffffff163373ffffffffffffffffffffffffffffffffffffffff161415610cc457600080fd5b600254341015610cd357600080fd5b600160008154809291906001019190505550610ced610f06565b6040518061012001604052803373ffffffffffffffffffffffffffffffffffffffff168152602001600181526020016040518060400160405280600481526020017f6e756c6c00000000000000000000000000000000000000000000000000000000815250815260200185815260200184815260200183815260200160011515815260200160015481526020013481525090508060046000600154815260200190815260200160002060008201518160000160006101000a81548173ffffffffffffffffffffffffffffffffffffffff021916908373ffffffffffffffffffffffffffffffffffffffff160217905550602082015181600101556040820151816002019080519060200190610e03929190610f6a565b506060820151816003019080519060200190610e20929190610f6a565b506080820151816004019080519060200190610e3d929190610f6a565b5060a0820151816005015560c08201518160060160006101000a81548160ff02191690831515021790555060e08201518160070155610100820151816008015590505050505050565b828054600181600116156101000203166002900490600052602060002090601f016020900481019282601f10610ec757805160ff1916838001178555610ef5565b82800160010185558215610ef5579182015b82811115610ef4578251825591602001919060010190610ed9565b5b509050610f029190610fea565b5090565b604051806101200160405280600073ffffffffffffffffffffffffffffffffffffffff168152602001600081526020016060815260200160608152602001606081526020016000815260200160001515815260200160008152602001600081525090565b828054600181600116156101000203166002900490600052602060002090601f016020900481019282601f10610fab57805160ff1916838001178555610fd9565b82800160010185558215610fd9579182015b82811115610fd8578251825591602001919060010190610fbd565b5b509050610fe69190610fea565b5090565b61100c91905b80821115611008576000816000905550600101610ff0565b5090565b9056fea2646970667358221220875fb0185dcc9abfd743f4b1bb44a1b3852d5eb8c34c4844a5451d133195118264736f6c63430006000033",
  "source": "pragma solidity ^0.6.0;\r\n\r\ncontract Registration{\r\n\r\n    address public owner;\r\n    uint256 index;\r\n    uint256 amount; // new Registration amount\r\n    uint256 chng_amount; // change registration amount\r\n\r\n    constructor() public{\r\n        owner = msg.sender;\r\n        index = 0;\r\n        amount = 3;\r\n        chng_amount = 1;\r\n    }\r\n\r\n    struct newRegistration{\r\n\r\n        address owner;\r\n        uint256 hand;\r\n        string vehicleno;\r\n        string owner_name;\r\n        string vehicle_type;\r\n        uint256 chassis;\r\n        bool pending;\r\n        uint256 Index;\r\n        uint amount;\r\n\r\n    }\r\n\r\n    mapping(uint256 => newRegistration) public registration;\r\n\r\n    modifier onlyOwner(){\r\n        require(msg.sender == owner);\r\n        _;\r\n    }\r\n\r\n    function propose_newRegistration(string memory _ownername,string memory _vehicletype,uint256 _chassis)public payable{\r\n        require(msg.sender != owner);\r\n        require(msg.value >= amount);\r\n        index++;\r\n        newRegistration memory regi = newRegistration({\r\n\r\n            owner : msg.sender,\r\n            hand : 1,\r\n            vehicleno : \"null\",\r\n            owner_name : _ownername,\r\n            vehicle_type : _vehicletype,\r\n            chassis : _chassis,\r\n            pending : true,\r\n            Index : index,\r\n            amount : msg.value\r\n\r\n\r\n        });\r\n\r\n        registration[index] = regi;\r\n\r\n\r\n    }\r\n\r\n\r\n    function confirm_newRegistration(uint _index,string memory _vehicleno)public onlyOwner{\r\n\r\n        registration[_index].vehicleno = _vehicleno;\r\n        registration[_index].pending = false;\r\n        (bool success, ) = owner.call.value(\r\n                        registration[_index].amount\r\n                    )(\"\");\r\n\r\n\r\n\r\n    }\r\n\r\n    function reject_Registration(uint _index)public onlyOwner{\r\n        (bool success,) = registration[_index].owner.call.value(\r\n            registration[_index].amount\r\n            )(\"\");\r\n    }\r\n\r\n    function change_registrationproposal(uint _index,string memory _ownername,address _owner)public payable{\r\n        require(msg.sender == registration[_index].owner);\r\n        require(msg.value >= chng_amount);\r\n        (bool success,) = owner.call.value(\r\n             msg.value\r\n        )(\"\");\r\n        registration[_index].owner = _owner;\r\n        registration[_index].owner_name = _ownername;\r\n        registration[_index].hand++;\r\n\r\n    }\r\n\r\n\r\n\r\n\r\n\r\n}\r\n",
  "sourcePath": "C:\\Users\\HP\\Desktop\\registration\\contracts\\Registration.sol",
  "compiler": {
    "name": "solc",
    "version": "0.6.0+commit.26b70077.Emscripten.clang"
  },
  "schemaVersion": "3.2.0",
  "updatedAt": "2020-07-31T09:11:40.959Z",
  "networkType": "ethereum",
  "devdoc": {
    "methods": {}
  },
  "userdoc": {
    "methods": {}
  }
}